:1000000071C0000090C000008EC000008CC00000D5
:100010008AC0000088C0000086C0000084C00000C4
:1000200082C0000080C000007EC000007CC00000D4
:100030007AC0000078C0000076C0000074C00000E4
:1000400072C000000C94690B6EC000006CC0000010
:100050006AC0000068C0000066C0000064C0000004
:1000600062C0000060C000005EC000005CC0000014
:100070005AC0000058C0000056C0000054C0000024
:100080000C947B0B50C000004EC000004CC0000020
:100090004AC0000048C0000046C0000044C0000044
:1000A00042C0000040C000000C948D0B3CC000001A
:1000B0003AC0000038C0000036C0000034C0000064
:1000C00032C0000030C000002EC000002CC0000074
:1000D0002AC0000028C0000026C0000024C0000084
:1000E00022C0000011241FBECFEFD1E2DEBFCDBF82
:1000F00000E00CBF13E0A0E0B2E0E6E8F0E200E0D0
:100100000BBF02C007900D92A437B107D9F724E0C6
:10011000A4E7B3E001C01D92A933B207E1F70E9442
:10012000330C0C9441106CCF89E08093810088EFF0
:10013000809391007894889A2FEF8FE097E2215076
:1001400080409040E1F700C00000F89408958AE0F4
:100150008093910088EF8093810078948A9A2FE7AA
:100160008AE196E0215080409040E1F700C0000015
:10017000F894089589E08093810088EF809391003E
:100180007894889A2FE787ED95E22150804090403F
:10019000E1F700C00000809176039091770301960B
:1001A0009093770380937603F894089589E0809381
:1001B000810088EF80939100789488982FE787EDED
:1001C00095E2215080409040E1F700C0000080910E
:1001D000760390917703019790937703809376034A
:1001E000F89408958AE08093910088EF80938100CD
:1001F00078948A9A2FE781E397E1215080409040DC
:10020000E1F700C00000809174039091750301969E
:100210009093750380937403F89408958AE0809313
:10022000910088EF8093810078948A982FE781E38A
:1002300097E1215080409040E1F700C0000080919C
:1002400074039091750301979093750380937403E1
:10025000F89408958091F2039091F303892B39F477
:10026000A5DF8091F2039091F303892BC9F35CDF42
:100270001092F3031092F2038091F0039091F10336
:10028000892B39F4CBDF8091F0039091F103892B16
:10029000C9F35DDF1092F1031092F003089589E035
:1002A0008093810088EF809391007894889A2FEF53
:1002B0008DE292E2215080409040E1F700C00000C2
:1002C00080917603909177030196909377038093C2
:1002D0007603F894089589E08093810088EF8093F5
:1002E0009100789488982FEF8DE292E2215080401F
:1002F0009040E1F700C00000809176039091770371
:1003000001979093770380937603F89408958AE099
:100310008093910088EF8093810078948A9A2FEFE0
:100320008EE994E2215080409040E1F700C0000047
:100330008091740390917503019690937503809357
:100340007403F8940895719A22E02A95F1F700C099
:10035000709832E03A95F1F700C08EB18130E9F340
:1003600028E180E090E0DC01709A32E03A95F1F704
:1003700000C0880F991FAA1FBB1F709832E03A95E2
:10038000F1F700C0619B03C00196A11DB11D215072
:1003900059F7709A22E02A95F1F700C0709832E080
:1003A0003A95F1F700C0BC01CD0180580895CBDF2C
:1003B00060939203709393038093940390939503B7
:1003C00024E630E040E050E00E94D00F20938E03FE
:1003D00030938F0340939003509391030895EF92CD
:1003E000FF920F931F93AFDF24E630E040E050E030
:1003F0000E94D00F20939203309393034093940371
:100400005093950380918E0390918F03A091900358
:10041000B091910379018A01E81AF90A0A0B1B0BC2
:10042000C801B7010E94E10E23E333E34BEE50E431
:100430000E944B0E2DEC3CEC4CE45DE30E94E70D7A
:1004400024ED3AE94EEA5FEB0E946D0F0E94B30E75
:100450008B0120E030E000938A0310938B032093FC
:100460008C0330938D03CB011F910F91FF90EF9080
:1004700008952C9A22E02A95F1F700C0289832E0DE
:100480003A95F1F700C085B18130E9F328E180E0C9
:1004900090E0DC01289A32E03A95F1F700C0880F2D
:1004A000991FAA1FBB1F289832E03A95F1F700C0A8
:1004B0001C9B03C00196A11DB11D215059F7289A1C
:1004C00022E02A95F1F700C0289832E03A95F1F73A
:1004D00000C0BC01CD0180580895CBDF6093860336
:1004E00070938703809388039093890324E630E018
:1004F00040E050E00E94D00F2093820330938303AA
:1005000040938403509385030895EF92FF920F93D5
:100510001F93AFDF24E630E040E050E00E94D00FB0
:100520002093860330938703409388035093890375
:100530008091820390918303A0918403B0918503FD
:1005400079018A01E81AF90A0A0B1B0BC801B701E5
:100550000E94E10E23E333E34BEE50E40E944B0E86
:100560002DEC3CEC4CE45DE30E94E70D25E934ED15
:1005700049ED5FEB0E946D0F0E94B30E8B0120E0EE
:1005800030E000937E0310937F0320938003309329
:100590008103CB011F910F91FF90EF900895FF927F
:1005A0000F931F93CF93DF9380E28093080195DF31
:1005B0002FEF82E597E0215080409040E1F700C0A6
:1005C0000000EFEFF5EA2EE0E150F0402040E1F7C7
:1005D00000C000009ADF9093ED038093EC038FE757
:1005E00099EAE3E081509040E040E1F700C000006C
:1005F0008CDF9093ED038093EC03FFE729EA83E01F
:10060000F15020408040E1F700C00000EFE1FEE43F
:100610003197F1F700C00000C091EC03D091ED03D9
:100620008091EE039091EF03181619060CF4B0C0F8
:1006300031C02091EC033091ED032C1B3D0B8091D8
:10064000EE039091EF032817390714F0F801F082B8
:100650005CDF9093ED038093EC03FFE72FEA82E0E9
:10066000F15020408040E1F700C000002091EC03F1
:100670003091ED032C1B3D0BC901992324F48827ED
:100680009927821B930B2091EE033091EF03821781
:1006900093077CF280E2809308018091EC039091B3
:1006A000ED038C1B9D0B9C0122F422273327281B72
:1006B000390B4091E8035091E903420F531F5093C7
:1006C000E9034093E8034091EE035091EF03BA0130
:1006D0006E5C7F4F621773075CF09A012E5F3F4F8D
:1006E000281739072CF0425051098417950734F523
:1006F0005FD760E070E081E090E05FD78DE192E04D
:10070000DAD79FEFE3EDF0E39150E040F040E1F7FE
:1007100000C0000080917C0390917D03FC01EE0FEE
:10072000FF1FE254FC4F20910402309105023183F7
:100730002083019690937D0380937C038FE19EE458
:100740000197F1F700C0000080910402909105022A
:1007500001969093050280930402EFE1FEE4319745
:10076000F1F700C0000024D760E070E081E090E085
:1007700024D78CE292E09FD7FFEF29E688E1F15081
:1007800020408040E1F700C000001092080109C03D
:1007900080E38093080108E011E06894FF24F5F8F5
:1007A00048CFDF91CF911F910F91FF9008959F92B5
:1007B000AF92BF92CF92DF92EF92FF920F931F936F
:1007C000CF93DF93F5D660E070E081E090E0F5D65E
:1007D0008AE392E070D7E8E0F1E080818062808374
:1007E0007CDE8FE19EE40197F1F700C00000DFDDC1
:1007F0008FE19EE40197F1F700C000009FEF20E732
:1008000082E0915020408040E1F700C00000C4E049
:10081000D0E07BDE9093ED038093EC039FEF22E525
:1008200087E0915020408040E1F700C00000219710
:10083000209779F78FE19EE40197F1F700C000005F
:10084000C4E0D0E0CCDD9093EB038093EA039FEF0C
:1008500022E587E0915020408040E1F700C0000091
:100860002197209779F70091EC031091ED03E09028
:10087000EA03F090EB03A12CB12CC12CD12C60E049
:10088000C8E0D1E09924939484C0611106C08881A6
:10089000806188838881806888832091EC0330910F
:1008A000ED03201B310B8091EE039091EF0328178D
:1008B000390734F088818F7E8883888180688883B7
:1008C0002091EA033091EB032E193F098091EE034A
:1008D0009091EF032817390734F08881806188836D
:1008E00088818F77888311DE9093ED038093EC03EA
:1008F000801B910B9C0122F422273327281B390BE4
:100900008091EE039091EF03AC01440F551F440F0B
:10091000551F840F951F8217930724F4D092ED037F
:10092000C092EC03C090EC03D090ED038FE19EE405
:100930000197F1F700C0000052DD9093EB03809324
:10094000EA038E199F099C0122F422273327281BD2
:10095000390B8091EE039091EF03AC01440F551FCA
:10096000440F551F840F951F8217930724F4B092EC
:10097000EB03A092EA03A090EA03B090EB039FE799
:100980002FEA82E0915020408040E1F700C0000053
:10099000692D2091EE033091EF034091EC035091CB
:1009A000ED03401B510BCA01992324F48827992792
:1009B000841B950B821793070CF467CF4091EA03D1
:1009C0005091EB034E195F09CA01992324F488273B
:1009D0009927841B950B821793070CF456CFE8E0F8
:1009E000F1E080818F7E808380818F778083C091CA
:1009F000E603D091E7038091EC039091ED03801B17
:100A0000910B9C0122F422273327281B390BB901B3
:100A10004091E8035091E903240F351F3093E90317
:100A20002093E8034091EA035091EB034E195F09CC
:100A30009A0122F422273327241B350B2C0F3D1F4C
:100A40003093E7032093E6032091780330917903F4
:100A5000A9014E5C5F4F4617570754F040535109A8
:100A6000481759072CF0225031098217930734F5A3
:100A70009FD560E070E081E090E09FD58DE192E04D
:100A80001AD69FEF23ED80E3915020408040E1F79C
:100A900000C0000080917C0390917D03FC01EE0F6B
:100AA000FF1FE254FC4F2091040230910502318374
:100AB0002083019690937D0380937C038FE19EE4D5
:100AC0000197F1F700C000008091780390917903BD
:100AD0004091E6035091E7034C1B5D0B9C012E5C9B
:100AE0003F4F2417350784F02091EA033091EB0340
:100AF0002E193F09AC014E5F5F4F4217530724F098
:100B000002972817390734F553D560E070E081E08B
:100B100090E053D585E492E0CED59FEF23ED80E3BE
:100B2000915020408040E1F700C0000080917A039E
:100B300090917B03FC01EE0FFF1FEA56FC4F2091C2
:100B400004023091050231832083019690937B0348
:100B500080937A038091040290910502019690930C
:100B60000502809304028FE19EE40197F1F700C033
:100B700000001ED560E070E081E090E01ED58CE2C0
:100B800092E099D59FEF29E688E19150204080407E
:100B9000E1F700C00000DF91CF911F910F91FF900E
:100BA000EF90DF90CF90BF90AF909F9008957F928D
:100BB0008F929F92AF92BF92CF92DF92EF92FF926D
:100BC0000F931F93CF93DF938C01EB011C161D062F
:100BD0000CF046C18091F0039091F103892B09F04C
:100BE0003FC1C12CD12C712C812CE12CF12C5B014B
:100BF00021E0A21AB10842C08091F0039091F10364
:100C0000892B09F02DC17720C1F1809100029091CC
:100C10000102019781F4292D30E080910202909128
:100C2000030201972817390709F41AC1C0DD882487
:100C30008394890C0FC0292D30E08091020290919D
:100C4000030201972817390709F40AC1A8DC882490
:100C50008394890CC530D10514F459DB01C0C2DA84
:100C60008FEF94E32CE0815090402040E1F700C0EA
:100C700000008FEFE81AF80A01C0892CE0FC0FC0D1
:100C8000101611060CF0BFC08091F2039091F3038F
:100C9000892B09F0E5C099249394980C7EC0101616
:100CA00011060CF049C08091F2039091F303892B57
:100CB00009F0D6C099249394980C08C0939480911D
:100CC000F2039091F303892B09F0CAC02FEF290D8D
:100CD0008091000290910102019761F430E08091CF
:100CE00002029091030201972817390709F4B8C04E
:100CF0005EDD0BC030E0809102029091030201970B
:100D00002817390709F4ACC04ADCC530D10514F402
:100D1000E2DA01C04BDA9FEF24E38CE091502040EF
:100D20008040E1F700C00000892D881990E080170D
:100D300091070CF4C3CF03C0982C80E090E080179B
:100D4000910709F086C0CA14DB0409F082C030D4D0
:100D500060E070E081E090E030D484E592E0ABD4D4
:100D60009FEF23ED80E3915020408040E1F700C0E9
:100D700000008091000290910102019719F417DDA3
:100D8000939467C00CDC939464C093948091F203B5
:100D90009091F303892B09F063C02FEF290D809107
:100DA000000290910102019761F430E0809102020B
:100DB0009091030201972817390709F451C0F7DC15
:100DC0000BC030E080910202909103020197281736
:100DD000390709F445C0E3DBC530D10514F45FDA07
:100DE00001C0C8D99FEF24E38CE09150204080409F
:100DF000E1F700C00000892D881990E08017910765
:100E00000CF4C3CF03C0982C80E090E008171907BA
:100E100001F5CA14DB04E9F4CBD360E070E081E0B3
:100E200090E0CBD382E692E046D49FEF23ED80E3BF
:100E3000915020408040E1F700C000008091000206
:100E400090910102019719F4B2DC939402C0A7DBE0
:100E500093947394C72CD12CCC16DD060CF4CCCE15
:100E6000DF91CF911F910F91FF90EF90DF90CF9086
:100E7000BF90AF909F908F907F900895CF93DF9316
:100E800097D360E070E081E090E097D381EE92E04C
:100E900012D460E070E082E090E08FD386E792E0C9
:100EA0000AD4C9E0D1E0888185FF1FC08091780312
:100EB00090917903863991055CF083E090E09093FE
:100EC000F8038093F7039093F6038093F50366C0CD
:100ED00083E090E09093F8038093F70385E090E03F
:100EE0009093F6038093F50359C0888186FF29C04B
:100EF000809178039091790305969093790380937C
:100F000078034AE069EF73E00E940E1051D360E06D
:100F100070E081E090E051D381EE92E0CCD360E0CC
:100F200070E082E090E049D389EF93E0C4D32FEFE3
:100F300080E792E0215080409040E1F700C000003F
:100F4000B2CF888188230CF0AECF80917803909146
:100F50007903059790937903809378034AE069EFCA
:100F600073E00E940E1024D360E070E081E090E016
:100F700024D381EE92E09FD360E070E082E090E0C5
:100F80001CD389EF93E097D32FEF80E792E02150B5
:100F900080409040E1F700C0000085CFDF91CF9105
:100FA0000895CF93DF9304D360E070E081E090E098
:100FB00004D38FE692E07FD360E070E082E090E0BF
:100FC000FCD285E792E077D38091F5039091F60308
:100FD0000597BCF48CE090E09093030280930202AA
:100FE000E7D260E070E081E090E0E7D28FE692E047
:100FF00062D360E070E082E090E0DFD288E792E0C8
:101000005AD3C9E0D1E0888185FD56C0888186FF2A
:1010100028C08091020290910302019690930302EE
:10102000809302024AE069EF73E0F8D7C1D260E032
:1010300070E081E090E0C1D28FE692E03CD360E0C6
:1010400070E082E090E0B9D289EF93E034D32FEFE3
:1010500082E597E0215080409040E1F700C0000019
:10106000D2CF888188237CF680910202909103027E
:10107000019790930302809302024AE069EF73E0C4
:10108000CDD796D260E070E081E090E096D28FE616
:1010900092E011D360E070E082E090E08ED289EFC0
:1010A00093E009D32FEF82E597E0215080409040F4
:1010B000E1F700C00000A7CFDF91CF910895CF9353
:1010C000DF9376D260E070E081E090E076D28BE74B
:1010D00092E0F1D260E070E082E090E06ED285E8CC
:1010E00092E0E9D2C9E0D1E0888185FD46C08881DF
:1010F00086FF21C081E090E090930102809300027E
:1011000057D260E070E081E090E057D28BE792E048
:10111000D2D260E070E082E090E04FD285E892E0C9
:10112000CAD22FEF82E597E0215080409040E1F74E
:1011300000C00000D9CF88818823B4F61092010244
:101140001092000235D260E070E081E090E035D28C
:101150008BE792E0B0D260E070E082E090E02DD2C8
:101160008AE892E0A8D22FEF82E597E021508040F4
:101170009040E1F700C00000B7CFDF91CF91089514
:101180009FEF97B99093040181EE80930A0181E06B
:1011900080930B01909307011092080190BB11BA44
:1011A00084B985B98DB98EB90895E1E6F0E080E89B
:1011B00080831082089580E88093800089E0809386
:1011C000810083E08093890087EE80938800EFE6BA
:1011D000F0E080818260808310928500109284000C
:1011E000089580E8809390008CE0809391001092A5
:1011F00099008DE480939800E1E7F0E080818260BF
:1012000080831092950010929400089580E8809356
:10121000A0008DE08093A1001092A9008BE980933B
:10122000A800E2E7F0E08081826080831092A50050
:101230001092A4000895672B09F0B1C0009711F433
:10124000109808958130910511F411980895823015
:10125000910511F4129808958330910511F41398B3
:1012600008958430910511F41498089585309105FE
:1012700011F4159808958630910511F41698089583
:101280008730910511F4179808958A30910511F46B
:10129000289808958B30910511F4299808958C3081
:1012A000910511F42A9808958D30910511F42B9829
:1012B00008958E30910511F42C9808958F30910582
:1012C00011F42D9808958031910511F42E98089508
:1012D0008131910511F42F9808958431910511F40D
:1012E000409808958531910511F44198089586310B
:1012F000910511F4429808958731910511F44398AE
:1013000008958831910511F4449808958931910523
:1013100011F4459808958A31910511F4469808957D
:101320008B31910511F4479808958E31910511F490
:10133000589808958F31910511F459980895803285
:10134000910511F45A9808958132910511F45B9832
:1013500008958232910511F45C98089583329105C5
:1013600011F45D9808958432910511F45E98089502
:101370008532910511F45F9808958632910531F414
:10138000E5E0F1E080818E7F80830895879709F002
:10139000B5C0E5E0F1E080818D7F808308950097FE
:1013A00011F4109A08958130910511F4119A08955D
:1013B0008230910511F4129A08958330910511F449
:1013C000139A08958430910511F4149A0895853084
:1013D000910511F4159A08958630910511F4169A25
:1013E00008958730910511F4179A08958A30910570
:1013F00011F4289A08958B30910511F4299A0895D3
:101400008C30910511F42A9A08958D30910511F4CC
:101410002B9A08958E30910511F42C9A08958F30EF
:10142000910511F42D9A08958031910511F42E9AA9
:1014300008958131910511F42F9A08958431910511
:1014400011F4409A08958531910511F4419A089557
:101450008631910511F4429A08958731910511F46E
:10146000439A08958831910511F4449A0895893179
:10147000910511F4459A08958A31910511F4469A1F
:1014800008958B31910511F4479A08958E31910595
:1014900011F4589A08958F31910511F4599A0895CD
:1014A0008032910511F45A9A08958132910511F410
:1014B0005B9A08958232910511F45C9A0895833203
:1014C000910511F45D9A08958432910511F45E9AA4
:1014D00008958532910511F45F9A08958632910539
:1014E00031F4E5E0F1E080818160808308958797A1
:1014F00029F4E5E0F1E08081826080830895CF9354
:10150000C82F80FF06C061E070E084E190E093DEC8
:1015100005C060E070E084E190E08DDEC1FF06C0B0
:1015200061E070E085E190E086DE05C060E070E09B
:1015300085E190E080DEC2FF06C061E070E086E1F8
:1015400090E079DE05C060E070E086E190E073DE57
:10155000C3FF06C061E070E087E190E06CDE05C08B
:1015600060E070E087E190E066DECF910895CF9370
:10157000C82F60E070E086E290E05DDE8C2FBFDF78
:1015800061E070E087E290E056DE8FEC97E0019733
:10159000F1F700C0000060E070E087E290E04BDE11
:1015A0008FEC97E00197F1F700C00000CF9108950C
:1015B00080E0DDDF81E0DBCF0895CF93C62F81305F
:1015C00049F480E8860F82958F70D1DF8C2F8F7061
:1015D000CEDF0AC0823041F480EC860F82958F7096
:1015E000C6DF8C2F8F70C3DFCF91089580E087DF37
:1015F0008FE39CE90197F1F700C0000083E0B7DFBB
:101600008FE097E20197F1F700C0000083E0AFDFC1
:101610008FEE95E50197F1F700C0000083E0A7DFAA
:1016200082E0A5DF82E0A3DF88E0A1DF80E09FDF2A
:101630008CE09DDF80E09BDF86E099CF0895CF931B
:10164000C82F61E070E086E290E0F5DD8C2F829596
:101650008F7055DF61E070E087E290E0ECDD8FECA9
:1016600097E00197F1F700C0000060E070E087E2CA
:1016700090E0E1DD8FEC97E00197F1F700C000000A
:101680008C2F8F703CDF61E070E087E290E0D3DD6B
:101690008FEC97E00197F1F700C0000060E070E088
:1016A00087E290E0C8DD8FEC97E00197F1F700C08A
:1016B0000000CF910895CF93DF93EC0188818823B8
:1016C00029F02196BCDF89918111FCCFDF91CF9168
:1016D00008951F920F920FB60F9211248F939F932C
:1016E00091B382E0892781BB9F918F910F900FBEAC
:1016F0000F901F9018951F920F920FB60F92112402
:101700008F939F9391B388E0892781BB9F918F919D
:101710000F900FBE0F901F9018951F920F920FB64B
:101720000F9211240BB60F922F933F934F935F9319
:101730006F937F938F939F93AF93BF93EF93FF9399
:101740008091F4038F5F8093F403F8948091F40305
:10175000823008F475C08091090184FD13C081B303
:10176000805881BB2FEF82E597E021508040904068
:10177000E1F700C000001CDF60E081E01EDF8FE8C1
:1017800092E099DF15DF8091060180FF11C0809102
:10179000F2039091F303892B59F488EF8093810031
:1017A00081E090E09093F3038093F2031092F403AE
:1017B0008091060181FF15C088EF8093910080938E
:1017C0008100F6DE60E081E0F8DE87E992E073DF19
:1017D0002FE788E391E0215080409040E1F700C07E
:1017E00000008091060182FF15C088EF8093910070
:1017F00080938100DDDE60E081E0DFDE8FE992E052
:101800005ADF2FE788E391E0215080409040E1F7D4
:1018100000C000008091060183FF11C08091F00399
:101820009091F103892B59F488EF8093910081E026
:1018300090E09093F1038093F0031092F403789476
:10184000FF91EF91BF91AF919F918F917F916F9198
:101850005F914F913F912F910F900BBE0F900FBE54
:101860000F901F901895CF93DF93CDB7DEB7609799
:101870000FB6F894DEBF0FBECDBF8FE19EE4019797
:10188000F1F700C000008FEF83BB14BA94DCA9DC31
:10189000BDDC76DC8ADCAADE9FEFE0E7F2E0915067
:1018A000E040F040E1F700C00000E8E0F1E08081B6
:1018B000806480837DDE60E081E07FDE86EB92E005
:1018C000FADE60E082E079DE80EC92E0F4DE2FEF79
:1018D00083ED90E3215080409040E1F700C000008C
:1018E0000E942A01EFE7F8E321E0E150F0402040B8
:1018F000E1F700C000005CDE60E081E05EDE88ECC5
:1019000092E0D9DE60E082E058DE87EA92E0D3DE42
:10191000E9E0F1E0808185FFFDCF8FEF92E5E7E020
:1019200081509040E040E1F700C00000A7DAFFEFEF
:1019300022E587E0F15020408040E1F700C0000040
:10194000BEDB9FEFE2E5F7E09150E040F040E1F7C9
:1019500000C0000026DB4AE069E274E08091780371
:10196000909179035BD324DE60E081E026DE88ED90
:1019700092E0A1DE60E082E020DE89E294E09BDE7E
:101980002FEF83ED90E3215080409040E1F700C0BD
:10199000000080E2809308010BDE09E011E068940A
:1019A000662463F8772473940F2EFEEB4F2EF3E03A
:1019B0005F2EF02D0F2EF6EEAF2EF3E0BF2EF02DA2
:1019C0000F2EF6E92F2EF3E03F2EF02D0F2EFEEB1B
:1019D000CF2EF3E0DF2EF02D36C0F8018081882372
:1019E000ACF44CDAFFEF22E587E0F1502040804074
:1019F000E1F700C0000063DB9FEFE2E5F7E0915004
:101A0000E040F040E1F700C00000CBDA4AE069E2D4
:101A100074E0809178039091790300D360E081E0D5
:101A2000CCDD89EE92E047DE60E082E0C6DD89E24F
:101A300094E041DE2FEF82E597E021508040904016
:101A4000E1F700C00000F801808185FFC6CFF301F7
:101A500080818F7B80838F9AABDD60E081E0ADDD9C
:101A600089EF92E028DE60E082E0A7DD89E294E081
:101A700022DE809178039091790302979093EF038F
:101A80008093EE036091F5037091F6038091F70364
:101A90009091F8038CD88FE19EE40197F1F700C094
:101AA00000001092E9031092E803720147014AE036
:101AB000BE016F5F7F4FF70180819181AFD2F70147
:101AC0008081918118161906A4F472DD60E081E02E
:101AD00074DD8FEF92E0EFDD60E082E06EDDCE013D
:101AE0000196E9DDF801808185FFFCCFF4011182C8
:101AF0001082FFEF24E38CE0F15020408040E1F7BA
:101B000000C0000092E0E90EF11CEA14FB0471F63B
:101B100010927D0310927C031092E7031092E6036B
:101B2000710147014AE0BE016F5F7F4FF70180817D
:101B3000918174D2F7018081918118161906A4F45D
:101B400037DD60E081E039DD8DE093E0B4DD60E019
:101B500082E033DDCE010196AEDDF801808185FFA4
:101B6000FCCFF40111821082FFEF24E38CE0F150EE
:101B700020408040E1F700C0000092E0E90EF11C37
:101B8000EC14FD0471F610927B0310927A03E1E0ED
:101B9000F0E0F0930502E09304021092F303109238
:101BA000F2031092F1031092F003FFEF21EE84E0B4
:101BB000F15020408040E1F700C000000E942A015F
:101BC0008F98F3018081806480833DCF5058BB277C
:101BD000AA270ED048C139D130F03ED120F031F4DF
:101BE0009F3F11F41EF42EC10EF4E095E7FB24C1D3
:101BF000E92F4AD180F3BA17620773078407950764
:101C000018F071F49EF562C10EF4E0950B2EBA2F18
:101C1000A02D0B01B90190010C01CA01A0011124F2
:101C2000FF27591B99F0593F50F4503E68F11A169E
:101C3000F040A22F232F342F4427585FF3CF46952F
:101C400037952795A795F0405395C9F77EF41F1651
:101C5000BA0B620B730B840BBAF09150A1F0FF0F1B
:101C6000BB1F661F771F881FC2F70EC0BA0F621F07
:101C7000731F841F48F4879577956795B795F795F7
:101C80009E3F08F0B3CF9395880F08F09927EE0F89
:101C90009795879508950CD0E6C0DED040F0D5D05A
:101CA00030F021F45F3F19F0C7C0511110C1CAC014
:101CB000EBD098F39923C9F35523B1F3951B550B3A
:101CC000BB27AA2762177307840738F09F5F5F4F0F
:101CD000220F331F441FAA1FA9F333D00E2E3AF050
:101CE000E0E830D091505040E695001CCAF729D06A
:101CF000FE2F27D0660F771F881FBB1F26173707B9
:101D00004807AB07B0E809F0BB0B802DBF01FF27E8
:101D100093585F4F2AF09E3F510568F08DC0D7C0A1
:101D20005F3FECF3983EDCF3869577956795B79522
:101D3000F7959F5FC9F7880F911D9695879597F93D
:101D40000895E1E0660F771F881FBB1F62177307B6
:101D50008407BA0720F0621B730B840BBA0BEE1FCB
:101D600088F7E095089598D088F09F5790F0B92FA4
:101D70009927B751A0F0D1F0660F771F881F991FE0
:101D80001AF0BA95C9F712C0B13081F09FD0B1E016
:101D900008959CC0672F782F8827B85F39F0B93F26
:101DA000CCF3869577956795B395D9F73EF49095E2
:101DB0008095709561957F4F8F4F9F4F0895E89460
:101DC00009C097FB3EF490958095709561957F4F83
:101DD0008F4F9F4F9923A9F0F92F96E9BB27939531
:101DE000F695879577956795B795F111F8CFFAF441
:101DF000BB0F11F460FF1BC06F5F7F4F8F4F9F4F72
:101E000016C0882311F096E911C0772321F09EE8CF
:101E1000872F762F05C0662371F096E8862F70E035
:101E200060E02AF09A95660F771F881FDAF7880F0F
:101E30009695879597F9089597F99F6780E870E0E0
:101E400060E008959FEF80EC089500240A94161630
:101E5000170618060906089500240A941216130698
:101E6000140605060895092E0394000C11F4882326
:101E700052F0BB0F40F4BF2B11F460FF04C06F5F42
:101E80007F4F8F4F9F4F089557FD9058440F551F18
:101E900059F05F3F71F04795880F97FB991F61F0EC
:101EA0009F3F79F087950895121613061406551F63
:101EB000F2CF4695F1DF08C0161617061806991FCF
:101EC000F1CF86957105610508940895E894BB27C4
:101ED00066277727CB0197F908950BD0C4CFB5DFDC
:101EE00028F0BADF18F0952309F0A6CFABCF112464
:101EF000EECFCADFA0F3959FD1F3950F50E0551FA9
:101F0000629FF001729FBB27F00DB11D639FAA274E
:101F1000F00DB11DAA1F649F6627B00DA11D661F9D
:101F2000829F2227B00DA11D621F739FB00DA11DBE
:101F3000621F839FA00D611D221F749F3327A00D78
:101F4000611D231F849F600D211D822F762F6A2F14
:101F500011249F5750408AF0E1F088234AF0EE0F99
:101F6000FF1FBB1F661F771F881F91505040A9F7A6
:101F70009E3F510570F060CFAACF5F3FECF3983ED3
:101F8000DCF3869577956795B795F795E7959F5F0D
:101F9000C1F7FE2B880F911D9695879597F90895A7
:101FA000052E97FB16F400940FD057FD05D014D0E2
:101FB00007FC02D046F408C0509540953095219515
:101FC0003F4F4F4F5F4F0895909580957095619565
:101FD0007F4F8F4F9F4F0895A1E21A2EAA1BBB1B64
:101FE000FD010DC0AA1FBB1FEE1FFF1FA217B307E5
:101FF000E407F50720F0A21BB30BE40BF50B661FFB
:10200000771F881F991F1A9469F7609570958095BE
:1020100090959B01AC01BD01CF010895BB274A30CB
:1020200031F4992322F4BDE2909581959F4F01C030
:10203000BB27FB015527AA27880F991FAA1FA417A2
:1020400010F0A41B83955051B9F7A05DAA3308F096
:10205000A95DA193009779F7B111B1931192CB01CA
:1020600000C0DC01FC01672F71917723E1F7329703
:1020700004C07C916D9370836291AE17BF07C8F363
:062080000895F894FFCF63
:102086000100140001005A65726F20536574205ACE
:1020960065726F005A65726F205365740053756DD3
:1020A600206F766572666C6F77204C0046696C6CA3
:1020B60020436F6D706C6574650046696C6C696E63
:1020C600672E2E2E0053756D206F766572666C6FC7
:1020D60077205200494E2041786973204D696E750C
:1020E6007300494E204178697320506C7573004324
:1020F6007570733A003230003132004361706163AB
:102106006974793A0046756C6C0048616C660041EA
:102116004952204F4646004552524F5220580045DC
:1021260052524F5220590053656C656374205765AF
:10213600696768743A006D69535254204D6B3200DA
:10214600496E69742E2E2E006D69535254204D6BC4
:10215600322052656164790053656C656374656409
:10216600205765696768743A004E65772057656938
:10217600676874205365743A0046696C6C3A004689
:1021860061696C204C656674204F6E3A0046616941
:102196006C205269676874204F6E3A0034302047CD
:1021A60072616D732020003435204772616D732093
:1021B60020003535204772616D73202000363520AA
:1021C6004772616D732020003730204772616D734E
:1021D6002020003830204772616D7320200039308E
:1021E600204772616D7320200031303020477261C4
:0421F6006D732000E5
:00000001FF
